:020000040800F2
:100000000000052061F000082520000827200008D6
:10001000292000082B2000082D20000800000000E7
:100020000000000000000000000000002F20000879
:1000300031200008000000003320000835200008AF
:10004000B1F00008B1F00008B1F00008B1F000080C
:10005000B1F00008B1F00008B1F00008B1F00008FC
:10006000B1F00008B1F00008B1F00008B1F00008EC
:10007000B1F00008B1F00008B1F00008B1F00008DC
:10008000B1F00008B1F00008B1F00008B1F00008CC
:10009000B1F00008B1F00008B1F00008B1F00008BC
:1000A000B1F00008B1F00008B1F00008B1F00008AC
:1000B000B1F000083D200008B1F00008B1F00008E0
:1000C000B1F00008B1F00008B1F00008B1F000088C
:1000D000B1F00008B1F00008B1F00008B1F000087C
:1000E000B1F00008B1F00008B1F00008B1F000086C
:1000F000B1F00008B1F00008B1F00008B1F000085C
:10010000B1F000084D200008B1F00008B1F000087F
:10011000B1F00008B1F00008B1F00008B1F000083B
:10012000B1F000085D200008B1F000086D20000863
:10013000B1F00008B1F00008B1F00008B1F000081B
:10014000B1F00008B1F00008B1F00008B1F000080B
:10015000B1F00008B1F00008B1F00008B1F00008FB
:10016000B1F00008B1F00008B1F00008B1F00008EB
:10017000B1F00008B1F000087D2000080000000088
:10018000B1F00008B1F00008B1F00008B1F00008CB
:10019000B1F00008B1F00008B1F00008B1F00008BB
:1001A000B1F00008B1F00008B1F00008B1F00008AB
:1001B000B1F00008B1F00008B1F00008B1F000089B
:0801C000B1F00008B1F00008E5
:1001D000034613F8012B002AFBD1181A0138704787
:1001E00001F0FF01102A2BDB10F0070F08D010F8E8
:1001F000013B013A8B422DD010F0070F42B3F6D1EC
:10020000F0B441EA012141EA014122F007047FF004
:1002100000070023F0E80256083C85EA010586EA5B
:10022000010685FA47F5A3FA87F586FA47F6A5FA97
:1002300087F68EB9EED1F0BC01F0FF0102F00702A3
:1002400032B110F8013B013A83EA010313B1F8D14E
:100250000020704701387047002D06BF354603382F
:10026000073815F0010F07D1013015F4807F02BF68
:10027000013015F4C03F0130F0BC0138704700BFB9
:1002800053B94AB9002908BF00281CBF4FF0FF31FD
:100290004FF0FF3000F00CB8ADF1080C6DE904CE62
:1002A0000FF050FFDDF804E0DDE9022304B07047F1
:1002B000704700BF10B5054C237833B9044B13B118
:1002C0000448AFF300800123237010BD304F02209B
:1002D000000000000004010808B5034B1BB10349EE
:1002E0000348AFF3008008BD00000000344F022037
:1002F0000004010870B58AB0444B834243D0444C9B
:10030000236B43F002032363236B03F00203039385
:10031000039B4FF4807305931223069300250795E2
:1003200002230893042309933A4E05A9304603F0AB
:10033000D1FA4FF40073059305A9304603F0CAFAC9
:10034000236C43F400132364236C03F4001304931D
:10035000049B236A43F400132362236A23F40013EB
:1003600023622A460F211F2001F06EFF1F2001F09B
:100370007BFF2A460F21202001F066FF202001F09C
:1003800073FF0AB070BD224C236B43F080032363DC
:10039000236B03F080030193019B802305931223B9
:1003A00006930025079502230893042309931A4E08
:1003B00005A9304603F08EFA4FF48073059305A922
:1003C000304603F087FA236C43F400032364236C64
:1003D00003F400030293029B236A43F400032362A5
:1003E000236A23F4000323622A460F21482001F0E8
:1003F0002BFF482001F038FF2A460F21492001F049
:1004000023FF492001F030FFBBE700BF4C4F022023
:100410000038024000040240001C024010B50446AF
:1004200003F0E4FFA0B90C4B9C4212D00B4B2360AD
:100430000B4B63600023A3600122E26023616361D0
:10044000E36123622046FFF755FF204603F0AAFD33
:1004500010BD044B2360EBE74C4F022000540040DA
:1004600032279140005C004010B5044603F0F8FDCF
:100470002046FFF7D3FF10BD70B584B004460D468B
:100480004FF47A760296BDF824600196089E009695
:1004900003F0FFFD064610B9304604B070BD294692
:1004A0002046FFF7E1FFF7E770B584B004460D463C
:1004B0004FF47A760296BDF824600196089E009665
:1004C00003F0BCFE064610B9304604B070BD2946A4
:1004D0002046FFF7C9FFF7E708B50248FFF79EFF80
:1004E00008BD00BFA04F022000B585B08DF80F20D9
:1004F000012301930DF10F03009302230A46C1B2B9
:100500000248FFF7B9FF05B05DF804FBA04F0220D9
:1005100000B585B00A4600238DF80F300123019302
:100520000DF10F0300930223C1B20448FFF7BCFF93
:100530009DF80F0005B05DF804FB00BFA04F02203E
:1005400008B501F01BFE08BD836B9A6C526D022A40
:1005500006D0012283F83520DA6C42F04002DA64DA
:100560007047000000B583B008200EF0B5FD064BC3
:1005700003604CF60203436001238DF800300190C4
:1005800003B05DF804FB00BFB450022030B583B067
:10059000846BA36B002B36D0A06C0268136803F445
:1005A0000023A16B11F0010F00D1B3B9136813F44C
:1005B000002F1DD0A26B236C9A4239D01BB1A26BC5
:1005C000B2EB530F46D023681B6813F0020F02D022
:1005D000012384F8353003B030BDD368E16B0022CD
:1005E00003EBC10103F06EF9A36B013BA363E1E7E9
:1005F0001369E16B012203EBC10103F063F9A36B03
:10060000013BA363D6E7A36C1B681A6812F4002FA2
:1006100002D0626CDA60CDE71A6812F4002FC9D1FB
:10062000626CE16B02EB81021A61236CA363C1E788
:100630002268D36843F00103D36008200EF04CFD1C
:100640000D4B03604CF2FE73436001238DF80030C4
:100650000190B8E708200EF03FFD0546074B036008
:100660004CF2FE73436006480EF0AEFE01238DF897
:1006700000300195A7E700BFBE180320B450022048
:1006800018040108F0B587B0104B1A6B42F08002D5
:100690001A631B6B03F080030093009B4FF400561A
:1006A0000196012302930027039703240494084D25
:1006B00001A9284603F00EF93A463146284603F0D0
:1006C000B8FA204601F05AFD07B0F0BD00380240EC
:1006D000001C024070B586B00F4B1A6B42F08002CE
:1006E0001A631B6B03F080030093009B4FF40055CB
:1006F0000195012602960023039303230493074CDC
:1007000001A9204603F0E6F832462946204603F0C8
:1007100090FA06B070BD00BF00380240001C0240D5
:1007200010B5054801F012FE044600B10124FFF7A0
:10073000D1FF204610BD00BF5C5002202DE9F041E2
:100740008CB005465A4B5A6B42F001025A635A6B01
:1007500002F001020092009A1A6B42F480021A63BE
:100760001A6B02F480020192019A1A6B42F00102A4
:100770001A631A6B02F001020292029A1A6B42F09B
:1007800008021A631A6B02F008020392039A1A6BAA
:1007900042F010021A631A6B02F010020492049ADB
:1007A0001A6B42F040021A631A6B02F04002059283
:1007B000059A1A6B42F080021A631B6B03F08003E8
:1007C0000693069B502307934FF00208CDF8208034
:1007D0000127099703240A940D260B9607A935488B
:1007E00003F078F808230793CDF8208009970A943E
:1007F0000B9607A9304803F06DF860230793CDF8F6
:10080000208009970A940B9607A92C4803F062F8F8
:100810004FF400730793CDF8208009970A940B9644
:1008200007A9274803F056F84FF4BC430793CDF8C7
:10083000208009970A940B9607A9224803F04AF8EA
:10084000214B4FF000725A6000269E60DE604FF42C
:1008500080621A614FF480525A614FF480429A616B
:100860004FF48072DA614FF400321A6204225A6245
:100870009C62DE624FF400121A63144A1A60AB6481
:100880009D6332460F214E2001F0DEFC4E2001F028
:10089000EBFC32460F21392001F0D6FC392001F063
:1008A000E3FCA86C01F098FE0CB0BDE8F08100BF3D
:1008B0000038024000000240000C024000100240DC
:1008C00000180240001C0240F44F0220286402403D
:1008D0002DE9F04182B00D461646BDF824709DF812
:1008E0002880294B00245C6140221A615C608022D0
:1008F000DA609C6120229A60044608B908221A62D4
:10090000214B224A1A60FFF7E5FEFFF7BBFE4FF4CA
:100910007A7001F033FC782000F079FA45F24063F8
:1009200098422BD11A4B1F801A4B83F800804FF44A
:10093000C83393FBF7F3184A137084B1012C18D015
:10094000114C00212046FFF7F9FE204601F0AEFCD5
:10095000204601F0ABFD002002B0BDE8F0819DF81B
:100960002C30009343463A463146284600F0BCFA04
:10097000E6E73146284600F0D9FAE1E707480EF0ED
:100980008BFD0420E8E700BF5C500220000005500A
:100990005850022056500220B05002202404010872
:1009A0007047000008B50B4B1B7803B908BDFFF773
:1009B000F7FF094B93F90030591C084A127891420D
:1009C00003DB054B00221A70F0E70133024A137073
:1009D000ECE700BFAE50022000000020B050022023
:1009E00070470000544B1B7803B970472DE9F04362
:1009F00087B0FFF7F5FF514A137801331370504A5F
:100A000013780133DBB213704E4A15780A2B60D885
:100A10004D4B1C78AC4272D94C480EF03DFD4A4B10
:100A200093F800904A4B1C78A4EB0904DFF834815A
:100A3000B8F8006014FB06F4A4B208200EF04CFBDA
:100A4000444F09FB06760660446001268DF800607D
:100A500001906B4693E8030000F054FB3544B8F86E
:100A6000008015FB08F5ADB208200EF035FB0760DD
:100A700008FB05F343608DF80860039002AB93E830
:100A8000030000F03FFB2C44334B1C802D4B93F9AB
:100A900000302F4A1278013A93424ADADBB201332E
:100AA000DBB2294A13702D4B01221A7004200EF07C
:100AB00013FB294C2388036000258DF81050059006
:100AC00006AB13E9030000F01DFB258007B0BDE86D
:100AD000F083FFF725FE002407E01E4B621C9A5CA2
:100AE000195D1F480EF070FC0234194B1A789208F9
:100AF0001C4B1B8802FB03F3A342EED888E72D1B97
:100B0000184B1E8815FB06F5ADB208200EF0E4FA6E
:100B1000104B04FB06330360456001238DF8083059
:100B2000039002AB93E8030000F0ECFA0A4B1D803F
:100B3000ACE70023B5E700BFAE500220B150022061
:100B4000AC50022000000020AF50022044040108F5
:100B5000B0500220B450022054500220AD50022068
:100B60003804010858500220704708B5FFF7FCFF11
:100B700008BD704708B5FFF7FCFF08BD70B582B02F
:100B8000044616461D46836C5B69B3F5006F32D090
:100B9000B3F5805F31D094F83430012B64D0012359
:100BA00084F83430022384F835302268136843F423
:100BB000804313602268136823F0020313602268E5
:100BC00013680B431360A36C294ADA63A36C294AA8
:100BD000DA64A26C00231365A3632364E363636494
:100BE000B5F5803F0BD3A36C214A5A640123A3635C
:100BF000E563666419E06D08CDE7AD08CBE71E48F4
:100C00000EF04AFCA36C1D4A1A6421682B4632463A
:100C10002831A06C01F046FDE0B1012022E0E36B39
:100C20005B08E363A36B5B00A363E36BB3F5803FF7
:100C3000F5D2A36B023BA363A36B2364E36B216830
:100C4000E26B009206EB830332462831A06C01F080
:100C5000C3FE58B92268136843F0010313600020F3
:100C600084F8340002B070BD0220FBE70120F9E7F0
:100C70008D050008490500085404010865050008B1
:100C800008B54FF40071084802F0CCFF0028F8D0F6
:100C9000064B01221A704FF4C833054A002105485B
:100CA000FFF76CFF08BD00BF00180240AE500220E5
:100CB000B45002205C50022010B5002409E0064B1D
:100CC00003EB8402927833F824107820FFF70CFCB1
:100CD0000134CE2CF3D910BD2405010810B5002431
:100CE00009E0064B03EB8402927833F82410782055
:100CF000FFF7FAFB01342C2CF3D910BD7004010866
:100D000008B5192876D8DFE800F00D1A2775757533
:100D100075753475757575757541757575755B7512
:100D2000754E7568382243F236017820FFF7DCFBF8
:100D3000162243F237017820FFF7D6FB08BD402288
:100D400043F236017820FFF7CFFB162243F237013A
:100D50007820FFF7C9FBF1E7002243F23601782043
:100D6000FFF7C2FB182243F237017820FFF7BCFBE4
:100D7000E4E7002243F236017820FFF7B5FB1622A4
:100D800043F237017820FFF7AFFBD7E7602243F249
:100D900036017820FFF7A8FB132243F237017820B1
:100DA000FFF7A2FBCAE7602243F236017820FFF783
:100DB0009BFB122243F237017820FFF795FBBDE73A
:100DC000802243F236017820FFF78EFB132243F294
:100DD00037017820FFF788FBB0E7A02243F2360105
:100DE0007820FFF781FB132243F237017820FFF7C9
:100DF0007BFBA3E7C02243F236017820FFF774FBA8
:100E0000132243F237017820FFF76EFB96E710B507
:100E1000FFF762FB1E20FFF793FB43F20A017820E5
:100E2000FFF776FB0402A4B243F20B017820FFF730
:100E30006FFB0443A4B2112243F203117820FFF7A1
:100E400053FB802243F208017820FFF74DFB0A2074
:100E5000FFF776FB204610BDF8B505460C46174651
:100E60001E46032243F212217820FFF73DFB3A0A87
:100E700043F608017820FFF737FBFAB243F6090181
:100E80007820FFF731FB320A43F60A017820FFF79A
:100E90002BFBF2B243F60B017820FFF725FB2A0A61
:100EA00043F610017820FFF71FFBEAB243F6110169
:100EB0007820FFF719FB220A43F612017820FFF78A
:100EC00013FBE2B243F613017820FFF70DFB132268
:100ED00043F212217820FFF707FBA32243F21221ED
:100EE0007820FFF701FBF8BD08B5FFF7E5FE3220DB
:100EF00001F044F9FFF7F2FEF0234FF4A072002155
:100F00000420FFF7A9FF412243F235017820FFF7C3
:100F1000EBFA792243F236017820FFF7E5FA222234
:100F200044F240717820FFF7DFFA08BD38B5044677
:100F30000D46FFF7C1FE2B46224600210420FFF795
:100F40008BFF0F20FFF7DCFE38BD000038B50546EB
:100F50000C4C0D4B0FCB84E80F0025610B4A002190
:100F600020460DF0BFFF2369D3E90E01084BC3E90A
:100F70000001084A002120460AF0C6F8206908F05E
:100F80002BFF38BDD0E00320A04E022060370020A8
:100F9000B8E00320C0E00320024B1863C3F8F80058
:100FA000704700BF60370020074BA3F85802A3F832
:100FB0005A12A3F8E0000022A3F8E220A3F8E410FC
:100FC000A3F8E620704700BF60370020014BC3F84C
:100FD000400270476037002010B584B06B4683E84C
:100FE00003000C4603AB0A4601460E48006908F0B0
:100FF000D0FD80B9039B9C4210D10B4A1368516805
:101000001B1941F1000113605160064B186908F08B
:10101000E3FE04B010BD01200EF04CF801200EF0EC
:1010200049F800BFD0E00320C0E0032020490B684E
:10103000204A02EB0312106601330B600F2B00D81D
:1010400070472DE970431C4C2069D0E90E891B4E76
:10105000D6E9002308F065FF194D2A4600212046F5
:101060000AF052F842464B46206908F05AFF002227
:101070000023C5E900230F4A936801339360D6E942
:101080000001C2E90601002120460DF0CFFE00213B
:10109000074B19602369D3E90E23C6E900232A46CA
:1010A00020460AF031F8206908F096FEBDE870830A
:1010B000B4E0032008000020D0E00320B8E00320C3
:1010C000C0E00320012070470120704710B582B0B6
:1010D000144601AB08F06AFC019BA34202D1002038
:1010E00002B010BD0120FBE710B582B0144601AB81
:1010F00008F04FFD019BA34202D1002002B010BDB9
:101100000120FBE782B002AB03E90300094B1B6837
:10111000072B0DD8084A02EBC30202A911E903000C
:1011200082E803000133034A1360012002B07047D4
:101130000020FBE724E10320E4E0032010B4114A7F
:101140001468E4B10346104A92E8030083E8030000
:10115000013C0C4B1C6000230BE003F1010C0A4A1C
:1011600002EBC30302EBCC0292E8030083E8030026
:1011700063469C42F1D801205DF8044B7047002083
:10118000FAE700BF24E10320E4E00320064B074A0E
:101190001A6000225A609A60DA604FF400611961A7
:1011A0005A619A611A617047E0E60320002C014001
:1011B0002DE9F04F91B000240B940C940D940E94F3
:1011C0000F94AC4B1A6B42F010021A631A6B02F0C8
:1011D00010020092009A1A6B42F040021A631A6BD6
:1011E00002F040020192019A1A6B42F002021A6365
:1011F0001A6B02F002020292029A1A6B42F0080283
:101200001A631A6B02F008020392039A1A6B42F0F7
:1012100004021A631A6B02F004020492049A1A6B15
:1012200042F001021A631A6B02F001020592059A5C
:101230001A6B42F400721A631A6B02F4007206927F
:10124000069A1A6B42F480721A631A6B02F4807267
:101250000792079A1A6B42F480621A631A6B02F4BF
:1012600080620892089A1A6B42F020021A631A6B85
:1012700002F020020992099A1A6B42F080021A6366
:101280001B6B03F080030A930A9BDFF804B2012270
:101290002021584602F0CDFCDFF8F881224641F2C9
:1012A0000C01404602F0C5FC22460821724802F0BB
:1012B000C0FC22464FF40051704802F0BAFCDFF83F
:1012C000D8A12246C821504602F0B3FC10230B934C
:1012D00002250C950D940E940E230F93684F0BA9C5
:1012E000384602F0F7FA08230B930C940D940BA9DF
:1012F000384602F0EFFA04230B930C950D94032665
:101300000E9609230F930BA9384602F0E3FA4FF427
:10131000D0430B930C950D940E960B230F930BA9B2
:10132000504602F0D7FA4FF683730B930C950D9449
:101330000E960C230F930BA9384602F0CBFA4FF010
:101340008009CDF82C900C950D940E9408230F93E2
:101350000BA9584602F0BEFA4FF400430B930C95CC
:101360000D940E9401270F970BA9464802F0B2FA8C
:10137000CDF82C900C950D940E9407230F930BA988
:10138000414802F0A7FA40230B930C950D940E965A
:101390004FF00A09CDF83C900BA93B4802F09AFAAD
:1013A00048F233130B930C950D940E960C230F9368
:1013B0000BA9504602F08EFA4EF6FF730B930C9574
:1013C0000D940E940E230F930BA9304802F082FA6D
:1013D0004FF480530B930C940D940BA92B4802F0FF
:1013E00079FA40230B934FF490130C930D940BA9AF
:1013F000584602F06FFA4CF203730B930C950D9460
:101400000E960C230F930BA9584602F063FA4FF483
:10141000E0530B930C950D940E96CDF83C900BA9D0
:10142000184802F057FAF0230B930C950D940E9484
:10143000CDF83C900BA9404602F04CFAF7230B93F1
:101440000C950D940E940E230F930BA90A4802F0ED
:1014500041FA4FF480530B930C950D940E9409238D
:101460000F930BA9504602F035FA4FF480630B93AB
:1014700014E000BF0038024000280240001C024077
:10148000001002400000024000040240002402401C
:10149000000C024000200240001802400C950D9400
:1014A0000E94CDF83C900BA9504602F013FA20237D
:1014B0000B930C970D940E940BA9584602F00AFA60
:1014C00041F20C030B930C970D940E940BA940461C
:1014D00002F000FA4FF400530B930C940D94DFF8D4
:1014E0002C920BA9484602F0F5F94FF63F030B93F7
:1014F0000C950D940E960C230F930BA97E4802F0C9
:10150000E9F94FF446430B930C950D940E940E237A
:101510000F930BA9404602F0DDF908230B930C97BB
:101520000D940E940BA9754802F0D4F910230B9377
:101530000C940D940BA9584602F0CCF948F2040320
:101540000B930C940D940BA96D4802F0C3F90B9505
:101550000C950D940E9405230F930BA9404602F0B1
:10156000B9F94FF400530B930C970D940E940BA9FB
:10157000634802F0AFF90B970C950D940E940F95FC
:101580000BA9404602F0A6F94FF400730B930C959B
:101590000D940E9407230F930BA95A4802F09AF961
:1015A0004FF480730B930C950D940E940F970BA929
:1015B000544802F08FF94FF400530B934FF49013FB
:1015C0000C930D940BA9404602F084F9C0230B93B1
:1015D0000C950D940E9608230F930BA9484602F024
:1015E00079F928230B930C950D940E960C230F93E9
:1015F0000BA9434802F06EF9C8230B930C970D9486
:101600000E940BA9504602F065F94FF4F8630B9362
:101610000C960D940BA9384802F05CF908230B9343
:101620000C950D940E960C230F930BA9484602F0CF
:1016300051F932230B930C950D940E960B230F93B7
:101640000BA9484602F046F904230B930C950D9420
:101650000E9609230F930BA92B4802F03BF94FF488
:1016600060530B930C950D940E9609230F930BA9C1
:10167000584602F02FF904230B930C940D940BA9F8
:10168000504602F027F986230B930C950D940E9685
:101690000B230F930BA91B4802F01CF90B970C9618
:1016A0000D940BA9174802F015F94FF4C0730B9372
:1016B00012230C930D940E9604230F930BA910483C
:1016C00002F008F940230B930C950D940E94092316
:1016D0000F930BA90A4802F0FDF84FF440430B9317
:1016E0000C950D940E9405230F930BA9064802F058
:1016F000F1F811B0BDE8F08F00140240002802405C
:10170000001C0240000002400004024000080240A9
:1017100000B583B00E4B1A6B42F480021A631B6B48
:1017200003F480030193019B00221146392000F04D
:101730008BFD392000F098FD002211463B2000F07F
:1017400083FD3B2000F090FD03B05DF804FB00BF7B
:101750000038024072B6FEE710B584B06B4683E8ED
:1017600003009DF80030012B0FD008D8CBB9019CA5
:101770002068FFF75BFC20460DF0B6FC03E0023B5F
:10178000DBB2022B0DD804B010BD019C02AB94E873
:10179000030083E80300FFF71FFC20460DF0A4FCC4
:1017A000F1E7FFF7D7FF000008B51148114B0360C0
:1017B000114B4360002383600122C26003614361D7
:1017C0008361C361036202F0EDFB50B90021084858
:1017D00002F00FFE38B90021054802F038FE20B9AA
:1017E00008BDFFF7B7FFFFF7B5FFFFF7B3FF00BF77
:1017F00064E7032000540040FFEAC00008B50C482D
:101800000C4B036000234360202282608022C26070
:101810004022026143618361082202624362836263
:10182000C362036300F042FD00B908BDFFF792FFF9
:1018300018E803200000055008B50B480B4B036067
:10184000082343600023C360036101228261C361F6
:1018500003624362C3620363436302F024FE00B980
:1018600008BDFFF777FF00BF2CE103200000044014
:1018700000B58FB000230A930B930C930D9307933D
:1018800008930993009301930293039304930593A0
:1018900006931F481F4A026042F20F724260836043
:1018A00042F21072C2600361836104F049FE20BB02
:1018B0004FF480530A930AA9154804F083FFF0B946
:1018C000134804F06DFEE0B900230793099307A9BC
:1018D0000F4804F0F7FFB0B9602300930022019293
:1018E0000292049269460A4804F0C2FE68B90848A8
:1018F00000F0ECFA0FB05DF804FBFFF72BFFFFF7E9
:1019000029FFFFF727FFFFF725FFFFF723FF00BFA2
:1019100034E603200004004000B595B030220021D9
:1019200008A80DF0C1FD00230393049305930693CB
:101930000793234B1A6C42F080521A641B6C03F01D
:1019400080530193019B1F4B1A6842F440421A6076
:101950001B6803F440430293029B012308934FF456
:101960008033099302230E934FF480020F920C22CE
:101970001092C022119212930823139308A802F028
:1019800097FEB0B902F056FEA8B90F2303930223C5
:101990000493002305934FF4A05306934FF4805310
:1019A0000793062103A803F0F1F830B915B05DF8EC
:1019B00004FBFFF7CFFEFFF7CDFEFFF7CBFE00BF26
:1019C000003802400070004000B587B000F0B8FB5E
:1019D000FFF7A2FFFFF7ECFBFFF79AFEFFF7E4FE2D
:1019E000FFF70CFFFFF728FF05F00CFDFFF7CEFB1C
:1019F000FFF73EFF314804F0FFFB08B1FFF7AAFEF6
:101A000001222F492F4807F0F7FD2F4B187088B19E
:101A100001462E480DF0D8FC2B4B1B78032B06D02B
:101A20002B480DF039FD284B18780DF043FB294861
:101A30000DF032FD0A222849284807F00DFE224BFE
:101A4000187050B1014626480DF0BEFC20480DF03C
:101A500023FD1D4B18780DF02DFB224CA079FFF7CC
:101A60009BFAA1886088FFF79FFA1F48FFF7AEFA3C
:101A70001A48FFF76BFA637B0393237B0293638916
:101A8000019323890093A379A28861882078FEF7C7
:101A90001FFFFFF7F5F800F085FB0121002002F0A1
:101AA000B5FD00F086FB04A8FFF748FB0028F2D044
:101AB00006AB13E90300FFF74FFEF4E734E603201B
:101AC00000ED0320C8EA032028E103206008010894
:101AD00084080108900801089C08010870E80320A8
:101AE000A8080108B04E02206765706A82B00A4BF0
:101AF0001A6C42F080521A641A6C02F08052009202
:101B0000009A5A6C42F480425A645B6C03F480433E
:101B10000193019B02B0704700380240F0B58DB0D0
:101B200000230793089309930A930B930268514B80
:101B30009A4201D00DB0F0BD04464F4B5A6B42F0B3
:101B400001025A635A6B02F001020192019A1A6B68
:101B500042F010021A631A6B02F010020292029A0B
:101B60001A6B42F008021A631A6B02F00802039221
:101B7000039A1A6B42F040021A631A6B02F0400299
:101B80000492049A1A6B42F080021A631A6B02F0F4
:101B900080020592059A1A6B42F001021A631B6BD0
:101BA00003F001030693069B60230793022708971F
:101BB0000D260B9607A9314801F08CFE08230793E8
:101BC0000897002509950A950B9607A92C4801F05E
:101BD00081FE4FF400730793089709950A950B96B9
:101BE00007A9284801F076FE4FF4BC4307930897F5
:101BF00009950A950B9607A9234801F06BFE50231F
:101C00000793089709950A950B9607A91F4801F0B5
:101C100061FE1F481F4B03604FF0007343608560F7
:101C2000C5604FF4806303614FF4805343614FF408
:101C3000804383614FF48073C3614FF400330362C8
:101C400004234362032383624FF40003C3620563EA
:101C500000F0C2FC58B90E4BA3649C6300221146ED
:101C60004E2000F0F1FA4E2000F0FEFA62E7FFF796
:101C700071FDF0E7000005500038024000100240FE
:101C8000000C024000180240001C0240000002400C
:101C9000B8E703202864024010B5A8B0044600212C
:101CA00023912491259126912791842202A80DF059
:101CB000FBFB2268184B9A4201D028B010BD4FF4AC
:101CC0008043029302A803F017F808BB134C236B60
:101CD00043F002032363236B03F002030093009B92
:101CE0004FF44073239312232493002325932693C8
:101CF0000423279323A90A4801F0ECFD236C43F445
:101D000000132364236C03F400130193019BD4E7B5
:101D1000FFF720FDDAE700BF005400400038024022
:101D20000004024002680B4B9A4200D0704710B585
:101D3000094A136C23F400131364084C4FF48071A8
:101D4000204601F0C9FE4FF40071204601F0C4FEA8
:101D500010BD00BF005400400038024000040240A3
:101D60002DE9F043ABB0044600212591269127913F
:101D700028912991842204A80DF096FB22683D4BFE
:101D80009A4202D02BB0BDE8F0834FF420030493B5
:101D900004A802F0B1FF002866D1374B5A6C42F418
:101DA00000625A645A6C02F400620192019A1A6B42
:101DB00042F004021A631A6B02F004020292029AC1
:101DC0001A6B42F008021A631B6B03F008030393BB
:101DD000039B4FF4F85325934FF00209CDF89890E8
:101DE00000252795032628964FF00C08CDF8A480EF
:101DF00025A9224801F06EFD04272597CDF898907B
:101E000027952896CDF8A48025A91D4801F062FDEC
:101E10001C481D4B03604FF0006343608560C56044
:101E20004FF4806303614FF4805343614FF4804368
:101E300083612023C3610562476286624FF4000319
:101E4000C3624FF40013036300F0C6FB78B90D4B77
:101E500023649C63E36300221146312000F0F4F90F
:101E6000312000F001FA8DE7FFF774FC95E7FFF7EA
:101E700071FCECE7002C01400038024000080240F1
:101E8000000C024080E603205864024002680E4BBA
:101E90009A4200D0704700B583B003F50D331A6C39
:101EA00042F002021A641B6C03F002030193019BCF
:101EB000002211461D2000F0C7F91D2000F0D4F9C2
:101EC00003B05DF804FB00BF0004004000B587B01C
:101ED00000230193029303930493059302680D4B2F
:101EE0009A4202D007B05DF804FB03F50D331A6B7C
:101EF00042F002021A631B6B03F002030093009B83
:101F00001023019302230293059301A9024801F0D3
:101F1000E1FCE7E700040040000402402DE9F04145
:101F20008CB000230793089309930A930B930268DC
:101F3000364B9A4202D00CB0BDE8F081344C236B92
:101F400043F002032363236B03F002030193019B1D
:101F5000236B43F080032363236B03F0800302931E
:101F6000029B236B43F004032363236B03F00403FE
:101F70000393039B236B43F001032363236B03F061
:101F800001030493049B43F6234307930227089716
:101F900003260A960A250B9507A91E4801F09AFC0C
:101FA0001023079308974FF00008CDF824800A9675
:101FB0000B9507A9184801F08DFC05230793089796
:101FC000CDF824800A960B9507A9144801F082FCED
:101FD000282307930897CDF824800A960B9507A924
:101FE0000F4801F077FC236B43F000532363236B0E
:101FF00003F000530593059B236B43F08043236359
:10200000236B03F080430693069B94E70000044093
:102010000038024000040240001C02400008024058
:1020200000000240FEE7FEE7FEE7FEE7FEE770473E
:102030007047704708B500F08FF808BD08B5024832
:1020400004F028F908BD00BF34E6032008B50248B3
:1020500003F0D4FE08BD00BFE0E6032008B5024847
:1020600000F0B8FB08BD00BFB8E7032008B5024880
:1020700000F0B0FB08BD00BF80E6032008B50248B1
:1020800000F0B6F908BD00BF18E803204FF0604328
:10209000D3F8803E13F0010F11D04FF06043D3F816
:1020A000003E13F0010F01D1704700BF4FF06043B5
:1020B0001B68002BF9D0C3B24FF060421370704719
:1020C00008B5FFF747FB70B50E461546002403E040
:1020D000305DFFF7DBFF0134AC42F9D3284670BD19
:1020E000034AD2F8883043F47003C2F8883070474E
:1020F00000ED00E010B504460E4B1A784FF47A73E9
:10210000B3FBF2F30C4A1068B0FBF3F000F0BAF83E
:1021100068B90F2C01D901200AE0002221464FF0B6
:10212000FF3000F091F8054B1C60002000E001201A
:1021300010BD00BFC44E0220C04E0220C84E022077
:1021400008B5032000F06EF80020FFF7D3FFFFF77B
:10215000CDFC002008BD0000034A1168034B1B782A
:102160000B441360704700BF68E80320C44E022090
:10217000014B1868704700BF68E8032038B5044673
:10218000FFF7F6FF0546B4F1FF3F02D0044B1B7882
:102190001C44FFF7EDFF401BA042FAD338BD00BF3F
:1021A000C44E02204FF0E022136923F002031361B2
:1021B00070474FF0E022136943F002031361704748
:1021C000002804DB0901C9B2044B1954704700F020
:1021D0000F000901C9B2024B1954704700E400E036
:1021E00014ED00E000B500F00700C0F1070CBCF1F1
:1021F000040F28BF4FF0040C031D062B0FD9C31E7C
:102200004FF0FF3E0EFA0CF021EA000199400EFA61
:1022100003FE22EA0E0241EA02005DF804FB0023FD
:10222000EEE700000649CB6823F4E0631B041B0CB7
:10223000000200F4E0600343024A1A43CA60704798
:1022400000ED00E00000FA0510B50446054BD86823
:10225000C0F30220FFF7C6FF01462046FFF7B0FF9C
:1022600010BD00BF00ED00E0002807DB00F01F02FA
:10227000400901239340024A42F82030704700BFD2
:1022800000E100E00138B0F1807F0BD24FF0E02395
:102290005861054AF02182F8231000209861072236
:1022A0001A6170470120704700ED00E0002848D017
:1022B00010B5044690F83530002B32D0022384F854
:1022C0003530A3690BB100236362226811681E4B8D
:1022D0000B40136022681168636860690343E0681B
:1022E000034320690343A0680343A0690343206AB2
:1022F0000343606A0343A06A0343E06A0343206B1D
:1023000003430B4313606368102B0DD02268D3681E
:1023100043F01E03D3600020E064012384F83530CD
:1023200010BDFFF7FBFBC9E7237F627F43EA02236F
:10233000A27F43EA0243E17F226843EA016393619B
:10234000E4E70120704700BF07F0E0FF38B51E4BFF
:102350001B681E4AA2FB03235B0A4FF47A7202FB3E
:1023600003F390F83420012A2CD00446012280F88F
:102370003420022280F8352001680A6822F0010228
:102380000A601A46013B32B12268126812F0010F4E
:10239000F7D1002504E0E36C43F02003E364032558
:1023A0002268136823F480431360A06C00F0B4F932
:1023B000E36CE364012384F83530002384F834307F
:1023C000284638BD0225FBE7C04E0220D34D6210DF
:1023D00008B5806B836C5B6D022B06D0012380F8FF
:1023E0003530C36C43F04003C364FEF7C3FB08BD44
:1023F00038B5044603681D6915F0040F20D115F0A7
:10240000020F2CD115F0100F3FD115F0080F43D15A
:1024100015F0010F13D023681A6812F0020F03D0D1
:10242000DA6822F01E02DA602268D36823F0010322
:10243000D360236801225A612046FEF796FB38BD1F
:1024400004225A61C36C43F00203C36480F8352050
:10245000836C154A1A65806C00F0A8F9CFE72368F1
:1024600002225A61E36C43F00103E364042384F81D
:102470003530A36C0C4A1A65A06C00F097F900285F
:10248000C0D0A06CFFF7A4FFBCE7236810225A61FC
:102490002046FEF787FAB8E7236808225A612046EB
:1024A000FEF7A0FAB4E700BFD123000890F834305B
:1024B000012B11D0012280F83420022380F835301E
:1024C00001680B6823F004030B6080F835200023BB
:1024D00080F83430184670470220704730B40568E1
:1024E0002C6824F480242C60046863608368402B8B
:1024F00005D0036899600368DA6030BC70470368F0
:102500009A600368D960F8E710B40168CAB2103A5B
:102510000A4BA3FB02431B09094CE35CC3655F2A1A
:1025200007D9084B0B4004338365806D5DF8044B7D
:102530007047044B0B408365F7E700BFABAAAAAA1C
:10254000D808010800FCFFFF836A826992B9012B59
:102550000AD0022B02D00BB100207047C36A13F0DF
:10256000807F28D100207047C36AB3F1C07F24D098
:1025700000207047B2F5005F09D0022B25D9032B4C
:1025800025D1C36A13F0807F23D100207047032B2D
:1025900003D8DFE803F01404140A00207047C36A6C
:1025A00013F0807F0DD100207047C36AB3F1C07F64
:1025B00009D000207047012070470120704701209A
:1025C00070470120704701207047012070470020AC
:1025D000704701207047000070B50446FFF7C8FD42
:1025E000002C5BD00546022384F83530002384F8A4
:1025F00034302268136823F00103136023681A68DB
:1026000012F0010F0AD0FFF7B3FD431B052BF5D9DC
:1026100020236365032084F8350070BD1A682049C3
:1026200011406268A0680243E068024320690243E7
:1026300060690243A0690243E0690243206A0243E1
:102640000A43616A04291ED01A602668756925F05C
:102650000705636A1D43042B07D1A36A1D43E36A80
:102660001BB12046FFF770FF90B975612046FFF758
:102670004BFFE26D3F2393408360002060650123A0
:1026800084F83530C9E7E16A206B01430A43DBE790
:1026900040236365012084F83500BEE70120BCE7D4
:1026A0003F8010F038B50446856D90F8340001285D
:1026B00030D0012084F8340094F83500C0B20128ED
:1026C00004D0002384F83430022038BD022084F87E
:1026D0003500002060652046FFF700FFE26D3F23D4
:1026E0009340AB602268136843F0160313602268BE
:1026F000536943F080035361236C23B1226813684C
:1027000043F0080313602268136843F00103136069
:102710000020DAE70220D8E770B50446866DFFF79F
:1027200027FD94F83530DBB2022B06D08023636599
:10273000002384F83430012070BD054622681368F8
:1027400023F0160313602268536923F0800353615A
:10275000236CE3B12268136823F008031360226836
:10276000136823F00103136023681B6813F0010F43
:1027700011D0FFF7FDFC431B052BF5D92023636522
:10278000032084F83500002384F83430D4E7A36CA8
:10279000002BDFD1E3E7E26D3F239340B3600123D9
:1027A00084F83530002084F83400C5E790F83530DF
:1027B000DBB2022B03D08023436501207047052341
:1027C00080F835300268136823F00103136000209D
:1027D00070470000F0B583B0044600230193724BAC
:1027E0001D68724BA3FB0535AD0A876D3E68C26D4F
:1027F00008239340334210D003681A6812F0040F84
:102800000BD01A6822F004021A60C26D08239340AC
:10281000BB60436D43F001034365E26D01239340C8
:10282000334209D02268526912F0800F04D0BB6095
:10283000636D43F002036365E26D0423934033420A
:1028400009D02268126812F0020F04D0BB60636DD9
:1028500043F004036365E26D10239340334224D0B8
:102860002268126812F0080F1FD0BB6023681A6834
:1028700012F4802F0DD01B6813F4002F04D1236CA9
:102880009BB12046984710E0A36C73B1204698474F
:102890000BE01A6812F4807F03D11A6822F0080254
:1028A0001A60236C0BB120469847E26D20239340B9
:1028B000334255D02268126812F0100F50D0BB601E
:1028C00094F83530DBB2052B0ED023681A6812F469
:1028D000802F33D01B6813F4002F2AD1636C002B98
:1028E0003ED0204698473BE02268136823F0160349
:1028F00013602268536923F080035361236CA3B1F2
:102900002268136823F008031360E26D3F239340AD
:10291000BB60012384F83530002384F83430236D04
:10292000002B3FD0204698473CE0A36C002BE7D11A
:10293000EBE7E36BA3B12046984711E01A6812F465
:10294000807F09D11A6822F010021A60012384F8EE
:102950003530002384F83430E36B0BB120469847C0
:10296000636DFBB1636D13F0010F17D0052384F87D
:1029700035302268136823F001031360019B013393
:102980000193AB4204D823681B6813F0010FF5D103
:10299000012384F83530002384F83430E36C0BB124
:1029A0002046984703B0F0BDC04E0220B5814E1BB3
:1029B000406D704710B4046863608368402B06D094
:1029C000036899600368DA605DF8044B7047036838
:1029D0009A600368D960F7E738B5044680688028B4
:1029E00011D094F83400012800F06587012084F8A4
:1029F000340094F83500C0B2012809D0002384F8CF
:102A00003430022038BD4FF4807363650120F9E74C
:102A1000022084F83500002060652568286840F4AD
:102A20008020286020680361049B2046FFF7C2FFD6
:102A30002368A54A934240F29880A2F589629342A6
:102A400031D002F58062934274D0A2F5687293424D
:102A500072D002F58062934270D0A2F589629342EF
:102A60006ED002F5806293426DD0A2F568729342F7
:102A70006CD002F5806293426BD0A2F589629342DA
:102A80006AD002F58062934269D0A2F568729342DF
:102A900068D002F58062934202D04FF0006203E0FA
:102AA0004FF4001200E02022884BDA602368864A47
:102AB000934240F2CC81A2F58962934200F0658195
:102AC00002F58062934200F0A781A2F568729342FA
:102AD00000F0A48102F58062934200F0A181A2F58A
:102AE0008962934200F09E8102F58062934200F079
:102AF0009C81A2F56872934200F09A8102F580628F
:102B0000934200F09881A2F58962934200F0968189
:102B100002F58062934200F09481A2F568729342BC
:102B200000F0928102F58062934200F02B814FF019
:102B300080622BE12022B7E72022B5E72022B3E70D
:102B40004FF40062B0E74FF40062ADE74FF400626B
:102B5000AAE74FF40062A7E74FF40012A4E74FF48E
:102B60000012A1E74FF400129EE7594A934253D94D
:102B7000A83A934231D002F58062934231D0A2F557
:102B8000687293422FD002F5806293422DD0A2F555
:102B9000896293422BD002F5806293422AD0A2F53B
:102BA0006872934229D002F58062934228D0A2F540
:102BB0008962934227D002F58062934226D0A2F523
:102BC0006872934225D002F58062934202D04FF0A2
:102BD000006203E04FF4001200E020223B4B9A60B9
:102BE00064E72022FAE72022F8E72022F6E74FF4F4
:102BF0000062F3E74FF40062F0E74FF40062EDE7A4
:102C00004FF40062EAE74FF40012E7E74FF40012D6
:102C1000E4E74FF40012E1E72E4A93425ED9483AC6
:102C2000934231D002F58062934231D0A2F56872AE
:102C300093422FD002F5806293422DD0A2F5896293
:102C400093422BD002F5806293422AD0A2F568729B
:102C5000934229D002F58062934228D0A2F589627E
:102C6000934227D002F58062934226D0A2F5687283
:102C7000934225D002F58062934202D04FF0006368
:102C800003E04FF4001300E02023134AD3600DE764
:102C90002023FAE72023F8E72023F6E74FF4006328
:102CA000F3E74FF40063F0E74FF40063EDE74FF410
:102CB0000063EAE74FF40013E7E74FF40013E4E79B
:102CC0004FF40013E1E700BF586402400064024083
:102CD000B86002405860024000600240B14A93422E
:102CE00031D002F58062934231D0A2F568729342EE
:102CF0002FD002F5806293422DD0A2F589629342D3
:102D00002BD002F5806293422AD0A2F568729342DA
:102D100029D002F58062934228D0A2F589629342BD
:102D200027D002F58062934226D0A2F568729342C2
:102D300025D002F58062934202D04FF0006303E099
:102D40004FF4001300E02023974A9360AEE620235F
:102D5000FAE72023F8E72023F6E74FF40063F3E7D0
:102D60004FF40063F0E74FF40063EDE74FF40063C6
:102D7000EAE74FF40013E7E74FF40013E4E74FF4FA
:102D80000013E1E74FF4801200E01022874BDA6075
:102D90002368874A934240F2CD81A2F5896293422B
:102DA00000F0668102F58062934200F0A881A2F5EE
:102DB0006872934200F0A58102F58062934200F0B0
:102DC000A281A2F58962934200F09F8102F58062A0
:102DD000934200F09D81A2F56872934200F09B81BE
:102DE00002F58062934200F09981A2F589629342D4
:102DF00000F0978102F58062934200F09581A2F580
:102E00006872934200F0938102F58062934200F071
:102E10002C814FF000722CE11022B7E71022B5E7A9
:102E20001022B3E74FF48062B0E74FF48062ADE761
:102E30004FF48062AAE74FF48062A7E74FF4801254
:102E4000A4E74FF48012A1E74FF480129EE7594A9D
:102E5000934253D9A83A934231D002F5806293420B
:102E600031D0A2F5687293422FD002F5806293426E
:102E70002DD0A2F5896293422BD002F58062934255
:102E80002AD0A2F56872934229D002F5806293425B
:102E900028D0A2F58962934227D002F5806293423E
:102EA00026D0A2F56872934225D002F58062934243
:102EB00002D04FF0806203E04FF4801200E0102255
:102EC0003A4B9A6064E71022FAE71022F8E71022E2
:102ED000F6E74FF48062F3E74FF48062F0E74FF4D7
:102EE0008062EDE74FF48062EAE74FF48012E7E793
:102EF0004FF48012E4E74FF48012E1E72E4A934248
:102F00005FD9483A934231D002F58062934231D082
:102F1000A2F5687293422FD002F5806293422DD0C1
:102F2000A2F5896293422BD002F5806293422AD0A7
:102F3000A2F56872934229D002F58062934228D0AC
:102F4000A2F58962934227D002F58062934226D08F
:102F5000A2F56872934231D002F58062934202D0AA
:102F60004FF0806303E04FF4801300E010230E4A1B
:102F7000D3600DE71023FAE71023F8E71023F6E7F4
:102F80004FF48063F3E74FF48063F0E74FF480631E
:102F9000EDE74FF48063EAE74FF48013E7E74FF47F
:102FA0008013E4E7106002400060024000640240C9
:102FB00058640240B8600240586002404FF48013E9
:102FC000D5E7B24A934231D002F58062934231D0C4
:102FD000A2F5687293422FD002F5806293422DD001
:102FE000A2F5896293422BD002F5806293422AD0E7
:102FF000A2F56872934229D002F58062934228D0EC
:10300000A2F58962934227D002F58062934226D0CE
:10301000A2F56872934225D002F58062934202D0F5
:103020004FF0806303E04FF4801300E01023984AD0
:103030009360ADE61023FAE71023F8E71023F6E7D4
:103040004FF48063F3E74FF48063F0E74FF480635D
:10305000EDE74FF48063EAE74FF48013E7E74FF4BE
:103060008013E4E74FF48013E1E74FF4002200E01F
:103070000822884BDA602368874A934240F2CE8167
:10308000A2F58962934200F0678102F58062934263
:1030900000F0A981A2F56872934200F0A68102F5C2
:1030A0008062934200F0A381A2F58962934200F00E
:1030B000A08102F58062934200F09E81A2F56872C1
:1030C000934200F09C8102F58062934200F09A8165
:1030D000A2F58962934200F0988102F580629342E2
:1030E00000F09681A2F56872934200F0948102F597
:1030F0008062934200F02D814FF080722DE1082212
:10310000B7E70822B5E70822B3E74FF40072B0E74B
:103110004FF40072ADE74FF40072AAE74FF400726B
:10312000A7E74FF40022A4E74FF40022A1E74FF4F1
:1031300000229EE7594A934253D9A83A934231D08C
:1031400002F58062934231D0A2F5687293422FD08B
:1031500002F5806293422DD0A2F5896293422BD072
:1031600002F5806293422AD0A2F56872934229D078
:1031700002F58062934228D0A2F58962934227D05B
:1031800002F58062934226D0A2F56872934225D060
:1031900002F58062934202D04FF0007203E04FF4D8
:1031A000002200E008223B4B9A6064E70822FAE71D
:1031B0000822F8E70822F6E74FF40072F3E74FF42D
:1031C0000072F0E74FF40072EDE74FF40072EAE7A7
:1031D0004FF40022E7E74FF40022E4E74FF4002227
:1031E000E1E72F4A934260D9483A934231D002F541
:1031F0008062934231D0A2F5687293422FD002F5DB
:10320000806293422DD0A2F5896293422BD002F5C1
:10321000806293422AD0A2F56872934229D002F5C7
:103220008062934228D0A2F58962934227D002F5AA
:103230008062934226D0A2F56872934232D002F5A2
:103240008062934202D04FF0007303E04FF40023FA
:1032500000E008230E4AD3600DE70823FAE70823AD
:10326000F8E70823F6E74FF40073F3E74FF4007331
:10327000F0E74FF40073EDE74FF40073EAE74FF423
:103280000023E7E74FF40023E4E700BF10600240AB
:10329000006002400064024058640240B86002408E
:1032A000586002404FF40023D4E7B24A934231D031
:1032B00002F58062934231D0A2F5687293422FD01A
:1032C00002F5806293422DD0A2F5896293422BD001
:1032D00002F5806293422AD0A2F56872934229D007
:1032E00002F58062934228D0A2F58962934227D0EA
:1032F00002F58062934226D0A2F56872934225D0EF
:1033000002F58062934202D04FF0007303E04FF465
:10331000002300E00823984A9360ACE60823FAE70C
:103320000823F8E70823F6E74FF40073F3E74FF4B8
:103330000073F0E74FF40073EDE74FF40073EAE732
:103340004FF40023E7E74FF40023E4E74FF40023B2
:10335000E1E74FF4802200E00422884BDA60236822
:10336000874A934240F2A181A2F58962934200F01C
:10337000678102F58062934200F08081A2F5687255
:10338000934200F07D8102F58062934200F07A81E1
:10339000A2F58962934200F0778102F58062934240
:1033A00000F07481A2F56872934200F0718102F519
:1033B0008062934200F06E81A2F58962934200F030
:1033C0006B8102F58062934200F06981A2F5687218
:1033D000934200F0678102F58062934200F02D81F4
:1033E0004FF480022DE10422B7E70422B5E704225E
:1033F000B3E74FF48072B0E74FF48072ADE74FF45B
:103400008072AAE74FF48072A7E74FF48022A4E706
:103410004FF48022A1E74FF480229EE7594A93425D
:1034200053D9A83A934231D002F58062934231D009
:10343000A2F5687293422FD002F5806293422DD09C
:10344000A2F5896293422BD002F5806293422AD082
:10345000A2F56872934229D002F58062934228D087
:10346000A2F58962934227D002F58062934226D06A
:10347000A2F56872934225D002F58062934202D091
:103480004FF0807203E04FF4802200E004223B4BB7
:103490009A6064E70422FAE70422F8E70422F6E7D8
:1034A0004FF48072F3E74FF48072F0E74FF48072CC
:1034B000EDE74FF48072EAE74FF48022E7E74FF43C
:1034C0008022E4E74FF48022E1E72F4A934260D95B
:1034D000483A934231D002F58062934231D0A2F54E
:1034E000687293422FD002F5806293422DD0A2F5EC
:1034F000896293422BD002F5806293422AD0A2F5D2
:103500006872934229D002F58062934228D0A2F5D6
:103510008962934227D002F58062934226D0A2F5B9
:103520006872934232D002F58062934202D04FF02B
:10353000807303E04FF4802300E004230E4AD3603D
:103540000DE70423FAE70423F8E70423F6E74FF432
:103550008073F3E74FF48073F0E74FF48073EDE787
:103560004FF48073EAE74FF48023E7E74FF48023BA
:10357000E4E700BF106002400060024000640240C7
:1035800058640240B8600240586002404FF4802303
:10359000D4E7994A934231D002F58062934231D008
:1035A000A2F5687293422FD002F5806293422DD02B
:1035B000A2F5896293422BD002F5806293422AD011
:1035C000A2F56872934229D002F58062934228D016
:1035D000A2F58962934227D002F58062934226D0F9
:1035E000A2F56872934225D002F58062934202D020
:1035F0004FF0807303E04FF4802300E004237F4A00
:103600009360ACE60423FAE70423F8E70423F6E723
:103610004FF48073F3E74FF48073F0E74FF4807357
:10362000EDE74FF48073EAE74FF48023E7E74FF4C8
:103630008023E4E74FF48023E1E74FF4803200E099
:1036400001226F4BDA602268136843F0160313609F
:103650002268536943F080035361236C002B00F010
:1036600025812268136843F00803136022681368F9
:1036700043F0010313600020FFF7C4B90122E0E723
:103680000122DEE70122DCE74022DAE74022D8E728
:103690004022D6E74022D4E74FF48032D1E74FF4FE
:1036A0008032CEE74FF48032CBE7564A93424FD96F
:1036B000A83A934231D002F58062934231D0A2F50C
:1036C000687293422FD002F5806293422DD0A2F50A
:1036D000896293422BD002F58062934229D0A2F5F1
:1036E0006872934227D002F58062934225D0A2F5FA
:1036F0008962934223D002F58062934222D0A2F5E0
:103700006872934221D002F58062934202D04FF456
:10371000800203E04FF4803200E00122384B9A60CF
:1037200091E70122FAE70122F8E70122F6E74022B9
:10373000F4E74022F2E74022F0E74022EEE74FF4C0
:103740008032EBE74FF48032E8E74FF48032E5E770
:103750002D4A93425AD9483A934231D002F58062B9
:10376000934231D0A2F5687293422FD002F5806265
:1037700093422DD0A2F5896293422BD002F580624C
:10378000934229D0A2F56872934227D002F5806255
:10379000934225D0A2F58962934223D002F580623C
:1037A000934222D0A2F56872934221D002F5806242
:1037B000934202D04FF4800303E04FF4803300E0E3
:1037C00001230E4AD3603EE70123FAE70123F8E71D
:1037D0000123F6E74023F4E74023F2E74023F0E734
:1037E0004023EEE74FF48033EBE74FF48033E8E714
:1037F0004FF48033E5E700BF1060024000600240F4
:1038000000640240B8600240586002402B4A934274
:1038100031D002F58062934231D0A2F568729342B2
:103820002FD002F5806293422DD0A2F58962934297
:103830002BD002F58062934229D0A2F568729342A0
:1038400027D002F58062934225D0A2F58962934287
:1038500023D002F58062934222D0A2F5687293428F
:1038600021D002F58062934202D04FF4800303E03E
:103870004FF4803300E00123114A9360E3E6012313
:10388000FAE70123F8E70123F6E74023F4E74023B2
:10389000F2E74023F0E74023EEE74FF48033EBE715
:1038A0004FF48033E8E74FF48033E5E7A36C002B57
:1038B0007FF4D7AEDAE60220FFF7A4B8106002402A
:1038C000006002401AB90368D9600020704703689D
:1038D0001961FAE700230F2B00F2F48070B582B073
:1038E00066E085684FEA430E032404FA0EF425EAE5
:1038F0000405CC6804FA0EF42C438460446824EA7E
:1039000002044A68C2F300129A40224342605DE01A
:10391000DC08083450F8242003F00705AD004FF010
:103920000F0E0EFA05FE22EA0E0E0A69AA4042EABE
:103930000E0240F824205DE0092200E0002202FA95
:103940000EF22A430234604D45F824205F4A946801
:103950006FEA0C0224EA0C054E6816F4801F01D0B1
:103960004CEA0405594CA560E46802EA04054E6877
:1039700016F4001F01D04CEA0405544CE56064685D
:1039800002EA04054E6816F4003F01D04CEA040533
:103990004E4C6560246822404D6815F4803F01D08C
:1039A0004CEA0402494C226001330F2B00F288805C
:1039B00001229A400C6804EA020C32EA0404F3D1B2
:1039C0004C6804F00304013C012C8AD94A6802F0D7
:1039D0000302032A09D0C4685D000322AA4024EA36
:1039E00002048A68AA402243C2604A6802F00302C5
:1039F000022A8DD004684FEA430E032202FA0EF227
:103A000024EA02044A6802F0030202FA0EF2224398
:103A100002604A6812F4403FC6D02D4A546C44F408
:103A200080445464526C02F480420192019A9C08D2
:103A3000A51C254A52F8255003F0030E4FEA8E0EBE
:103A40000F2202FA0EF225EA0205224A90423FF4C2
:103A500075AF02F58062904222D002F580629042FA
:103A600020D002F5806290421ED002F58062904222
:103A70001CD002F5806290421AD002F5806290421A
:103A800018D002F58062904216D002F58062904212
:103A900014D002F5806290423FF44EAF0A224EE706
:103AA00001224CE702224AE7032248E7042246E7C4
:103AB000052244E7062242E7072240E708223EE7C4
:103AC00002B070BD704700BF00380140003C0140AB
:103AD000003802400000024000230F2B00F29B80C0
:103AE000F0B52DE0092500E0002505FA0CF5A5420A
:103AF00075D004685D004FF0030C0CFA05FC24EA55
:103B00000C0404604FEAD30E0EF1080E50F82E405C
:103B100003F00706B6000F25B54024EA050440F877
:103B20002E40C46824EA0C04C460446824EA0202FB
:103B30004260826822EA0C02826001330F2B69D84E
:103B400001229A4002EA010632EA0104F5D14FEA65
:103B5000930E0EF10205304C54F8254003F0030C8F
:103B60004FEA8C0C0F2505FA0CF73C402B4DA84270
:103B7000BAD005F58065A84221D005F58065A84238
:103B80001FD005F58065A8421DD005F58065A842C7
:103B90001BD005F58065A84219D005F58065A842BF
:103BA00017D005F58065A84215D005F58065A842B7
:103BB00013D005F58065A84294D00A2595E7012524
:103BC00093E7022591E703258FE704258DE7052577
:103BD0008BE7062589E7072587E7082585E7104C49
:103BE000256825EA06052560656825EA06056560FD
:103BF000E56825EA0605E560A56825EA0605A560ED
:103C0000054E0EF1020456F8245025EA070546F841
:103C100024506EE7F0BD70470038014000000240BC
:103C2000003C01400369194201D001207047002087
:103C300070470AB181617047090481617047036868
:103C40009A6912F0020F01D000229A6203689A6901
:103C500012F0010F03D19A6942F001029A61704794
:103C600010B4019CC1F3090141EA02411943214307
:103C700021F0004102685368640D04F4806444F04C
:103C80007F7444F4583444F47F7444F0030423EA0A
:103C900004030B4353605DF8044B70472DE9F0417A
:103CA000044603689E6916F010067ED00D469046C5
:103CB0001022DA61002637462368986910F0200F39
:103CC00032D18FBBB5F1FF3FF6D0FEF751FAA0EB32
:103CD0000800A84201D8002DEED121684A6802F4FC
:103CE000804294F84230DBB2886910F4004F04D06F
:103CF000203B18BF012302B973B923689B6913F0F5
:103D0000200FD9D1FEF734FAA0EB08001928F4D916
:103D100046F020060127CFE74B6843F480434B6011
:103D2000FEF726FA8046E8E70FB92022DA6146F06E
:103D3000040601252268936913F4807F05D046F0BC
:103D400001064FF48071D161012513F4806F06D014
:103D500046F0080622684FF48061D161012513F412
:103D6000007F24D046F0020623684FF40072DA6127
:103D700001252046FFF763FF2268536823F0FF7395
:103D800023F48B3323F4FF7323F001035360636C3C
:103D900033436364202384F84130002384F84230A5
:103DA00084F840302846BDE8F0810025C2E7002DA8
:103DB000F8D0DEE770B504460D46164623689B69C9
:103DC00013F0020F1DD1324629462046FFF766FF49
:103DD000C8B9B5F1FF3FF1D0FEF7CAF9801BA84280
:103DE00001D8002DEAD1636C43F0200363642023E3
:103DF00084F84130002384F8423084F840300120B8
:103E000000E0002070BD0120FCE72DE9F0410646EE
:103E1000884617461D463468A46938EA04040CBF76
:103E200001240024BC4218D1B5F1FF3FF3D0FEF7C6
:103E30009FF9069BC01AA84201D8002DEBD1736CE4
:103E400043F020037364202386F84130002386F872
:103E5000423086F84030012000E00020BDE8F081CB
:103E60002DE9F04182B0044690461D46089E099F08
:103E7000194B00934FF08073EAB2FFF7F1FE3A4618
:103E800031462046FFF796FFF8B9012D0ED1236881
:103E90005FFA88F29A62009733460022802120461A
:103EA000FFF7B3FFA8B902B0BDE8F08123684FEA7D
:103EB00018229A623A4631462046FFF77BFF30B916
:103EC00023685FFA88F29A62E5E70120EBE70120B8
:103ED000E9E70120E7E700BF002000802DE9F0417D
:103EE00082B0044690461D46089E099F184B0093D9
:103EF0000023EAB2FFF7B4FE3A4631462046FFF708
:103F000059FFF8B9012D0ED123685FFA88F29A6241
:103F100000973346002240212046FFF776FFA8B9DC
:103F200002B0BDE8F08123684FEA18229A623A464F
:103F300031462046FFF73EFF30B923685FFA88F22A
:103F40009A62E5E70120EBE70120E9E70120E7E7D6
:103F50000020008070B505460C4616462B689B690C
:103F600013F0200F1AD1324621462846FFF796FE5D
:103F7000B0B9FEF7FDF8801BA04201D8002CEDD1AE
:103F80006B6C43F020036B64202385F841300023E1
:103F900085F8423085F84030012070BD0020FCE7F4
:103FA0000120FAE7002857D010B5044690F84130B8
:103FB000002B41D0242384F841302268136823F079
:103FC000010313606368226823F070631361226841
:103FD000936823F400439360E368012B31D0A36816
:103FE000226843F404439360E368022B2FD02268D5
:103FF00051681A4B0B4353602268D36823F4004383
:10400000D360236962691343A169226843EA0123EB
:10401000D360E369216A22680B4313602268136846
:1040200043F00103136000206064202384F84130D2
:10403000206384F8420010BD80F84030FDF72CFE6C
:10404000B8E7A368226843F400439360CCE7236891
:104050004FF400625A60CAE70120704700800002F6
:10406000A8B110B50446242380F8413002681368D3
:1040700023F001031360FDF755FE0020606484F80F
:104080004100206384F8420084F8400010BD012004
:1040900070472DE9F04F83B00D46BDF834A00E9F58
:1040A00090F84110C9B2202940F0BC8004469046E7
:1040B00099460C9BBAF1000F18BF002B16D090F850
:1040C0004030012B00F0B2804FF0010B80F840B07F
:1040D000FEF74EF80646009019235A464FF4004169
:1040E0002046FFF792FE30B101209CE04FF40073B0
:1040F0004364012097E0212384F84130402384F871
:104100004230002363640C9A6262A4F82AA06363BD
:10411000019600974B46424629462046FFF7A0FEEF
:1041200070B9638D9BB2FF2B0FD9FF22228500232C
:1041300000934FF0807329462046FFF791FD21E060
:10414000002384F8403058466DE0628D92B222859B
:10415000002300934FF00073D2B229462046FFF7A8
:104160007FFD0FE0628D92B22285002300934FF015
:104170000073D2B229462046FFF772FD638D9BB2D1
:10418000002B33D0324639462046FFF713FE002875
:104190004ED1626A236812789A62636A013363625D
:1041A000638D9BB2013B9BB26385238D013B9BB228
:1041B0002385628D92B2002AE0D0002BDED10096DA
:1041C0003B46002280212046FFF71FFE90BB638DF7
:1041D0009BB2FF2BC6D9FF222285002300934FF00C
:1041E000807329462046FFF73BFDC7E73246394634
:1041F0002046FFF7AFFEF8B923682022DA61216874
:104200004B6823F0FF7323F48B3323F4FF7323F005
:1042100001034B6084F84120002384F8423084F885
:10422000403000E0022003B0BDE8F08F0220FAE742
:104230000120F8E70120F6E70120F4E72DE9F04F2F
:1042400083B00D46BDF834A00E9F90F84110C9B25E
:10425000202940F0BD800446904699460C9BBAF157
:10426000000F18BF002B16D090F84030012B00F043
:10427000B3804FF0010B80F840B0FDF779FF0646A0
:10428000009019235A464FF400412046FFF7BDFD28
:1042900030B101209DE04FF400734364012098E0A9
:1042A000222384F84130402384F8423000236364A1
:1042B0000C9A6262A4F82AA06363019600974B46A9
:1042C000424629462046FFF709FE70B9638D9BB22E
:1042D000FF2B0FD9FF222285434B00934FF08073B1
:1042E00029462046FFF7BCFC21E0002384F840303B
:1042F00058466EE0628D92B222853B4B00934FF0A0
:104300000073D2B229462046FFF7AAFC0FE0628D67
:1043100092B22285002300934FF00073D2B2294657
:104320002046FFF79DFC638D9BB2002B34D0009696
:104330003B46002204212046FFF767FD00284DD1AF
:1043400023685A6A636A1A70636A01336362228D52
:10435000013A92B22285638D9BB2013B9BB2638589
:10436000638D9BB2002BDED0002ADCD100963B4649
:1043700080212046FFF749FD90BB638D9BB2FF2B48
:10438000C5D9FF222285002300934FF08073294670
:104390002046FFF765FCC6E7324639462046FFF760
:1043A000D9FDF8B923682022DA6121684B6823F02F
:1043B000FF7323F48B3323F4FF7323F001034B606B
:1043C00084F84120002384F8423084F8403000E033
:1043D000022003B0BDE8F08F0220FAE70120F8E7E1
:1043E0000120F6E70120F4E70024008090F8410066
:1043F0007047034690F84120D2B2202A23D190F88A
:104400004020012A21D0012280F84020242280F877
:1044100041200068026822F0010202601868026808
:1044200022F4805202601868026811430160196822
:104430000A6842F001020A60202283F8412000202D
:1044400083F84000704702207047022070470346FF
:1044500090F84120D2B2202A21D190F84020012AA0
:104460001FD0012280F84020242280F841200068DB
:10447000026822F0010202601868026822F4706289
:1044800042EA0122026019680A6842F001020A60E9
:10449000202283F84120002083F84000704702204A
:1044A00070470220704770B58AB0002800F09780EE
:1044B0000546046890F8BD343BB3032385F8BD344A
:1044C000E36B13F4807F01D100232B61286802F095
:1044D00035FE2C4654F8106BEC460FCCACE80F00C0
:1044E0000FCCACE80F0094E803008CE803002B1D10
:1044F0000ECB304602F0E4FD044658B1022385F8A5
:10450000BD34012420460AB070BD80F8BC34FDF7EC
:1045100005FDD2E70021286802F042FF234616E09D
:1045200003EBC30205EB8202012182F83D1082F801
:104530003C30A2F84430002182F840109164D164EC
:1045400003EBC30205EB820251650133DBB26968FC
:104550008B42E5D316E004EBC40305EB8303002292
:1045600083F87D2283F87C4283F88022C3F8882276
:10457000C3F88C2204EBC40305EB8303C3F8942235
:104580000134E4B2A142E6D82C4654F8106BEC4654
:104590000FCCACE80F000FCCACE80F0094E80300A0
:1045A0008CE803002B1D0ECB304602F023FE0446A0
:1045B00060B9002385F83830012385F8BD346B6A73
:1045C000012B08D0286802F0D9FE9BE7022385F86A
:1045D000BD34012496E7284600F004F8F2E70124F0
:1045E00090E70000034602680121C0F80015002092
:1045F00083F8F404936943F000639361516D024BB7
:104600000B435365704700BF03000010084A13694D
:1046100023F004031361BFF34F8FBFF36F8F0129A2
:1046200003D040BF20BF20BF704730BF704700BFDE
:1046300000ED00E010B582B01B4B1A6C42F08052C6
:104640001A641B6C03F080530193019B174A136893
:1046500043F480331360FDF78BFD0446134B5B6816
:1046600013F4803F08D1FDF783FD001BB0F57A7F7E
:10467000F4D9032002B010BD0C4A136843F4003390
:104680001360FDF775FD0446084B5B6813F4003FAB
:1046900007D1FDF76DFD001BB0F57A7FF4D903203B
:1046A000E8E70020E6E700BF003802400070004065
:1046B000002800F0FF8170B582B00446036813F053
:1046C000010F29D0954B9B6803F00C03042B1AD0E3
:1046D000924B9B6803F00C03082B0FD06368B3F573
:1046E000803F40D0002B54D18C4B1A6822F480328A
:1046F0001A601A6822F480221A6039E0874B5B68DE
:1047000013F4800FEAD0854B1B6813F4003F03D0ED
:104710006368002B00F0D081236813F0020F74D07F
:104720007E4B9B6813F00C0F5ED07C4B9B6803F0B4
:104730000C03082B53D0E368002B00F08980774AE4
:10474000136843F001031360FDF712FD0546734B38
:104750001B6813F0020F72D1FDF70AFD401B0228FF
:10476000F5D90320ADE16D4A136843F4803313603B
:1047700063682BB3FDF7FCFC0546684B1B6813F41C
:10478000003FC9D1FDF7F4FC401B6428F5D9032094
:1047900097E1B3F5A02F09D0604B1A6822F480325C
:1047A0001A601A6822F480221A60E1E75B4B1A68EB
:1047B00042F480221A601A6842F480321A60D7E705
:1047C000FDF7D6FC0546554B1B6813F4003FA3D0FC
:1047D000FDF7CEFC401B6428F5D9032071E14F4B57
:1047E0005B6813F4800FA6D14C4B1B6813F0020FCB
:1047F00003D0E368012B40F06181484A136823F03D
:10480000F803216943EAC1031360236813F0080F1A
:1048100046D0636983B3414A536F43F00103536742
:10482000FDF7A6FC05463D4B5B6F13F0020F37D139
:10483000FDF79EFC401B0228F5D9032041E1374AD1
:10484000136823F0F803216943EAC1031360DCE72E
:10485000324A136823F001031360FDF789FC054613
:104860002E4B1B6813F0020FCFD0FDF781FC401BCD
:104870000228F5D9032024E1284A536F23F00103CD
:104880005367FDF775FC0546244B5B6F13F0020F71
:1048900006D0FDF76DFC401B0228F5D9032010E17E
:1048A000236813F0040F7DD01C4B1B6C13F0805F4A
:1048B0001ED11A4B1A6C42F080521A641B6C03F022
:1048C00080530193019B0125154B1B6813F4807FD6
:1048D00010D0A368012B25D0002B3BD10F4B1A6FB2
:1048E00022F001021A671A6F22F004021A671EE012
:1048F0000025E9E70A4A136843F480731360FDF763
:1049000037FC0646064B1B6813F4807FE1D1FDF7A8
:104910002FFC801B6428F5D90320D2E00038024028
:10492000007000406E4A136F43F001031367A368E1
:1049300033B3FDF71DFC0646694B1B6F13F0020FE6
:104940002FD1FDF715FC801B41F288339842F3D933
:104950000320B6E0052B09D0614B1A6F22F001024B
:104960001A671A6F22F004021A67E0E75C4B1A6FAD
:1049700042F004021A671A6F42F001021A67D6E782
:10498000FDF7F6FB0646564B1B6F13F0020F08D0DF
:10499000FDF7EEFB801B41F288339842F3D90320E8
:1049A0008FE0FDB9A369002B00F08A804C4A926821
:1049B00002F00C02082A58D0022B19D0484A13687A
:1049C00023F080731360FDF7D3FB0446444B1B6850
:1049D00013F0007F47D0FDF7CBFB001B0228F5D971
:1049E00003206EE03E4A136C23F080531364D9E732
:1049F0003B4A136823F080731360FDF7B9FB05464B
:104A0000374B1B6813F0007F06D0FDF7B1FB401B4E
:104A10000228F5D9032054E0E369226A1343626A4D
:104A200043EA8213A26A5208013A43EA0243E26A65
:104A300043EA026343F00053294A5360136843F08A
:104A400080731360FDF794FB0446254B1B6813F03D
:104A5000007F06D1FDF78CFB001B0228F5D903204F
:104A60002FE000202DE000202BE01D4A5268012B92
:104A700029D002F48003E1698B4226D102F03F0382
:104A8000216A8B4223D1616A47F6C0731340B3EBAE
:104A9000811F1ED102F44031A36A5B08013BB1EBD8
:104AA000034F18D102F07062E36AB2EB036F14D1C6
:104AB000002006E001207047012002E0012000E014
:104AC000002002B070BD0120FBE70120F9E70120C2
:104AD000F7E70120F5E70120F3E70120F1E700BF48
:104AE0000038024008B5264B9B6803F00C03042BEA
:104AF00041D0082B41D1224B5A6802F03F025B683B
:104B000013F4800F12D01E4B5968C1F388111D4851
:104B10000023A1FB0001FBF7B3FB194B5B68C3F358
:104B2000014301335B00B0FBF3F027E0144B5868FE
:104B3000C0F388104FEA401CBCEB000C6EEB0E0E6D
:104B40004FEA8E1343EA9C634FEA8C11B1EB0C01E0
:104B500063EB0E03DB0043EA5173C90011EB000C59
:104B600043F10003990200234FEA8C2041EA9C5153
:104B7000FBF786FBD1E7034800E0034808BD00BF10
:104B80000038024040787D010024F400002800F045
:104B9000A08070B50D460446524B1B6803F00F030E
:104BA0008B420BD24F4A136823F00F030B43136061
:104BB000136803F00F038B4240F08D80236813F0DD
:104BC000020F17D013F0040F04D0474A936843F440
:104BD000E0539360236813F0080F04D0424A9368AF
:104BE00043F460439360404A936823F0F003A16864
:104BF0000B439360236813F0010F31D06368012BDE
:104C000020D0022B25D0384A126812F0020F64D04F
:104C100035498A6822F0030213438B60FDF7A8FA36
:104C20000646314B9B6803F00C036268B3EB820FBE
:104C300016D0FDF79DFA801B41F288339842F0D9D7
:104C4000032045E0284A126812F4003FE0D1012019
:104C50003EE0254A126812F0007FD9D1012037E0EA
:104C6000204B1B6803F00F03AB420AD91D4A13689F
:104C700023F00F032B431360136803F00F03AB42C1
:104C80002DD1236813F0040F06D0174A936823F43C
:104C9000E053E1680B439360236813F0080F07D0DB
:104CA000114A936823F46043216943EAC103936086
:104CB000FFF718FF0C4B9B68C3F303130B4AD35C3D
:104CC000D8400B4B18600B4B1868FDF713FA002007
:104CD00070BD012070470120FAE70120F8E70120AC
:104CE000F6E700BF003C024000380240C808010857
:104CF000C04E0220C84E0220F0B583B004460668BC
:104D000016F001060DD0A74B9A6822F400029A60B3
:104D10009A68416B0A439A60436B002B00F039811B
:104D20000026256815F4002511D09E4AD2F88C3053
:104D300023F44013E16B0B43C2F88C30E36BB3F503
:104D4000801F00F02881002B00F0278100252368B8
:104D500013F4801F0FD0934AD2F88C3023F4400311
:104D6000216C0B43C2F88C30236CB3F5800F00F03C
:104D7000168103B90125236813F0807F00D0012636
:104D800013F0200F40F01081236813F0100F0CD0A7
:104D9000844BD3F88C2022F08072C3F88C20D3F897
:104DA0008C20A16B0A43C3F88C20236813F4804F36
:104DB00008D07C4AD2F8903023F44033616E0B4324
:104DC000C2F89030236813F4004F08D0754AD2F827
:104DD000903023F44023A16E0B43C2F89030236837
:104DE00013F4803F08D06F4AD2F8903023F4401378
:104DF000E16E0B43C2F89030236813F4003F08D0F3
:104E0000684AD2F8903023F44003216F0B43C2F874
:104E10009030236813F0400F08D0624AD2F89030E7
:104E200023F00303616C0B43C2F89030236813F046
:104E3000800F08D05B4AD2F8903023F00C03A16CAD
:104E40000B43C2F89030236813F4807F08D0554A92
:104E5000D2F8903023F03003E16C0B43C2F890306D
:104E6000236813F4007F08D04E4AD2F8903023F024
:104E7000C003216D0B43C2F89030236813F4806F98
:104E800008D0484AD2F8903023F44073616D0B4348
:104E9000C2F89030236813F4006F08D0414AD2F86A
:104EA000903023F44063A16D0B43C2F89030236827
:104EB00013F4805F08D03B4AD2F8903023F440537B
:104EC000E16D0B43C2F89030236813F4005F08D003
:104ED000344AD2F8903023F44043216E0B43C2F899
:104EE0009030236813F4800F08D02E4AD2F8903007
:104EF00023F08063A16F0B43C2F89030236813F452
:104F0000001F0DD0274AD2F8903023F00063E16FE4
:104F10000B43C2F89030E36FB3F1006F00F0AA804A
:104F2000236813F0080F00D0012513F4802F08D058
:104F30001C4AD2F8903023F04073616F0B43C2F8E3
:104F40009030236813F4000F09D0164AD2F890303D
:104F500023F08053D4F880100B43C2F8903026B968
:104F6000236813F0007F00F005810E4A136823F0D8
:104F700080631360FDF7FCF806460A4B1B6813F0CC
:104F8000006F79D0FDF7F4F8801B6428F5D9032071
:104F9000F3E00126C5E60126D5E60125D7E6012680
:104FA000E7E600BF003802407F4B1A6C42F08052A7
:104FB0001A641B6C03F080530193019B7B4A1368B6
:104FC00043F480731360FDF7D3F80746774B1B68F3
:104FD00013F4807F06D1FDF7CBF8C01B6428F5D908
:104FE0000320CAE0704B1B6F13F4407315D0226B83
:104FF00002F440729A4210D06B4B1A6F22F4407246
:10500000196F41F480311967196F21F480311967E4
:105010001A671B6F13F0010F12D1236B03F4407258
:10502000B2F5407F1DD0604A936823F4F813936073
:105030005D490B6F226BC2F30B0213430B67A3E6B0
:10504000FDF796F80746584B1B6F13F0020FE4D19B
:10505000FDF78EF8C01B41F288339842F3D9032044
:105060008BE05148826822F4F812514919400A43F2
:105070008260DDE7012553E7236813F0010F13D0A9
:10508000636B8BB9484AD2F88430D2F884106068D8
:1050900003F4403343EA801301F070610B43A168CD
:1050A00043EA0173C2F88430236813F4002F03D05D
:1050B000E26BB2F5801F06D013F4801F1ED0236C64
:1050C000B3F5800F1AD1384AD2F88430D2F8841060
:1050D000606803F4403343EA8013E06843EA006306
:1050E00001F0E0410B43C2F88430D2F88C3023F059
:1050F0001F03616A01390B43C2F88C30236813F037
:10510000807F11D0284AD2F88400D2F884106668D3
:1051100023691B0443EA861300F07060034301F027
:10512000E0410B43C2F88430236813F0007F0DD0B8
:10513000626823691B0443EA8213E26843EA02635C
:10514000A26843EA0273184AC2F88430164A136808
:1051500043F080631360FDF70BF80646124B1B68A3
:1051600013F0006F06D1FDF703F8801B6428F5D912
:10517000032002E0012D02D0002003B0F0BD0A4A56
:10518000136823F080531360FCF7F2FF0546064BCB
:105190001B6813F0005F0DD0FCF7EAFF401B64288A
:1051A000F5D90320E9E700BF003802400070004055
:1051B000FFFCFF0F236813F4002F01D0E26B22B134
:1051C00013F4801F1DD0236CDBB9354AD2F8883028
:1051D000D2F88810606903F4403343EA8013A06971
:1051E00043EA006301F0E0410B43C2F88830D2F893
:1051F0008C3023F4F853A16A013943EA0123C2F841
:105200008C30236813F4001F03D0E36FB3F1006FF9
:1052100031D0236813F0080F19D0214AD2F8881032
:10522000D2F88830606903F4403343EA801301F018
:1052300070610B43E16943EA0173C2F88830D2F828
:105240008C3023F44033E16A0B43C2F88C30144AAB
:10525000136843F080531360FCF78AFF0446104B39
:105260001B6813F0005F19D1FCF782FF001B642854
:10527000F5D9032081E70A4AD2F88800D2F88810CD
:105280006569236A1B0443EA851300F070600343D9
:1052900001F0E0410B43C2F88830BAE700206CE728
:1052A00000380240836B1A68D36B43F48073D36376
:1052B0007047000070B582B0044600230193006877
:1052C00001F0C4FB054610B1284602B070BD20684D
:1052D00001F0B6FE38B90123A364A36C012B0BD0F7
:1052E0002E46284614E00023A364206801F0AEFB9C
:1052F0000028F2D00546E7E70021206801F00EFD06
:105300000028EDD04FF08055DEE7019B013301937B
:10531000019A4FF6FE739A4213D896B9002120687D
:1053200001F0FCFCE0B91249206801F0D5FD064609
:10533000C0B90021206801F074FBC30FE5D01E4600
:10534000E3E7019A4FF6FE739A420ED810F08043BD
:1053500002D001236364B7E7002262641D46B3E70D
:105360000546B1E74FF08055AEE74FF08075ABE7EB
:10537000000010C1F8B5846AC66AA6B9F8BD3868DD
:1053800001F02AFB2070C0F307236370C0F30743CA
:10539000A370000EE0700434043E0135072DEED9F1
:1053A000BC62FE62EAE707460025F7E7F0B583B086
:1053B000046A466ADEB903B0F0BD237801936278CF
:1053C00043EA02230193A27843EA02430193E2787D
:1053D00043EA026301930434043E01A9386801F0F2
:1053E000FEFA0135072DE8D93C627E62E3E7074605
:1053F0000025F7E7F0B589B004460F46FCF7B8FE84
:1054000006460023009301930821206801F0DCFB8D
:10541000054610B1284609B0F0BD216D0904206889
:1054200001F07CFC05460028F4D14FF0FF330293D5
:105430000823039330230493022305930023069348
:105440000123079302A9206801F0EEFA206801F019
:1054500095FC054658B1DDE701F0BEFA4DF8250090
:105460000135FCF785FE831BB3F1FF3F3FD0206879
:10547000436B13F02A0F07D1436B13F4001FEBD1DA
:10548000436B13F4005FECD1436B13F0080F25D18D
:10549000436B13F0020F24D1456B15F0200523D187
:1054A00040F23A538363019A130203F47F0343EA01
:1054B0000263110A01F47F410B4343EA12633B602C
:1054C000009A130203F47F0343EA0263110A01F412
:1054D0007F410B4343EA12637B609BE708258563AA
:1054E00098E70225856395E72025856392E74FF0CD
:1054F00000458FE710B582B004460021009101916C
:10550000006801F08EFA10F0007F13D16946204642
:10551000FFF770FF80B9019B13F4802F0ED0216D2F
:105520000904206801F0FAFB30B90221206801F07B
:105530000DFC01E04FF4006002B010BD4FF0806040
:10554000FAE710B582B0044600210091019100688D
:1055500001F067FA10F0007F13D169462046FFF78B
:1055600049FF80B9019B13F4803F0ED0216D0904DF
:10557000206801F0D3FB30B90021206801F0E6FB80
:1055800001E04FF4006002B010BD4FF08060FAE718
:1055900070B581B104460E46016D0904006801F042
:1055A00005FC054608B1284670BD0021206801F0C1
:1055B00038FA3060F7E74FF00065F4E72DE9F04383
:1055C00087B0044691B116461F460A4690F83450FB
:1055D000EDB2012D7FD100238363F019E36D984272
:1055E0000AD9A36B43F00073A36375E0836B43F0A8
:1055F0000063836301256FE0032384F8343021685E
:105600000023CB622068C16B41F49571C163216CAA
:105610003448C863216C3448C864216C0B65216C24
:105620008B60206C01680B6823F0C0038068034323
:105630000B6021684FEA47294FEA99038031206CBB
:10564000FDF730F8804600282ED12268D36A43F057
:105650000803D362636C012B00D076024FF0FF3356
:105660000093CDF804909023029302230393002328
:105670000493012305936946206801F0D5F9012FB1
:1056800022D9822323633146206801F0CDFA38B352
:105690002368164A9A63A36B0343A363012384F828
:1056A00034300023236317E02268D36B23F495730F
:1056B000D36323680D4A9A63A36B43F08043A363CB
:1056C000012384F8343007E08123236331462068C6
:1056D00001F092FADBE70225284607B0BDE8F08327
:1056E0004546F9E7235800080D5D0008FF05400016
:1056F000F0B587B00446002939D01E460F4690F811
:105700003450EDB2012D40F0818000238363931962
:10571000C16D8B4231D8032380F8343003680021F7
:10572000D9620068C36B43F01A03C363E36B394863
:10573000D863E36B3848D864E36B1965636C012B5D
:1057400000D05202012E1DD9A023236311462068E8
:1057500001F09AFAE8B12368304A9A63A36B0343D5
:10576000A363012384F83430002323634FE0836B69
:1057700043F000638363012549E0836B43F00073CA
:10578000836344E0902323631146206801F064FAA8
:10579000E0E72268D36A43F00803D362E36B402258
:1057A0009A60E16B0A68136823F0C00389680B43B1
:1057B000136022687602B30880323946E06BFCF74A
:1057C00071FF074688B12268D36B23F01A03D363B5
:1057D0002368124A9A63A36B43F08043A3630123B7
:1057E00084F834300023236311E04FF0FF3300933B
:1057F00001969023029300230393049301230593BE
:105800006946206801F010F93D4600E0022528466F
:1058100007B0F0BDA55200080D5D0008FF0540006F
:10582000704710B5846B236B822B11D02268D36A2A
:1058300023F00803D362236840F23A529A630123AB
:1058400084F8343000232363204601F01EFE10BD8F
:10585000206801F031FA03460028E7D0A26B134319
:10586000A3632046FFF7DCFFE0E700000346426E3B
:10587000920F0A70426EC2F383624A7090F86720FA
:1058800002F003028A7090F86620CA7090F86520D2
:105890000A7190F864204A71826E120DCA80B0F8C5
:1058A0006A2002F00F020A72826EC2F3C0324A729C
:1058B000826EC2F380328A72826EC2F34032CA7242
:1058C000826EC2F300320A7300224A73426C002ACD
:1058D00040F08680806E40F6FC7202EA8002D86E4C
:1058E00042EA90720A61DA6EC2F3C2620A7593F8F4
:1058F0006F2002F007024A75DA6EC2F342528A75CF
:10590000DA6EC2F38242CA75DA6EC2F3C2320A7626
:105910000A6901325A65087E00F0070002308240B1
:105920005A6591F808C00CF00F0C012000FA0CF039
:105930009865400A00FB02F2DA654FF400721A66BD
:10594000DA6EC2F380324A76DA6EC2F3C6128A7613
:10595000DA6E02F07F02CA761A6FD20F0A771A6FD8
:10596000C2F341724A771A6FC2F382628A771A6F62
:10597000C2F38352CA771A6FC2F3405281F82020D3
:10598000002081F82100B3F8722002F0010281F8B2
:1059900022201A6FC2F3C03281F823201A6FC2F39B
:1059A000803281F824201A6FC2F3403281F825201A
:1059B0001A6FC2F3003281F826201A6FC2F38122D7
:1059C00081F827201A6FC2F3012281F828201B6F6B
:1059D000C3F3460381F82930012381F82A30704748
:1059E000012A11D1826E120402F47C12B0F86E000A
:1059F00002430A610A69013292025A65DA654FF47C
:105A000000729A651A669BE7026805499163826B8A
:105A100042F080528263012083F83400704700BF57
:105A2000FF05400070B590B004460123ADF8123078
:105A3000006800F0DDFF00286CD0636C032B45D1BB
:105A4000636C032B5DD1636C032B1DD0BDF812106A
:105A500021650904206801F004FA054600285BD19D
:105A60000021206800F0DDFF60660421206800F05E
:105A7000D8FFA0660821206800F0D3FFE0660C2163
:105A8000206800F0CEFF20670421206800F0C9FFE5
:105A9000000DE06405A92046FFF7E8FE00283ED18E
:105AA000226D12040023206801F020F9054698BBFE
:105AB000234653F8106B93E807008DE80700043481
:105AC00094E80E00304600F06DFF25E0206801F0FC
:105AD000B3F9054600BB0021206800F0A2FF606713
